:020000040800F2
:1000000000200020410000089D0000089D0000081D
:100010009D0000089D0000089D00000800000000F1
:100020000000000000000000000000009D0000082B
:100030009D000008000000009D0000089D000008D1
:1000400080B582B000AF104B7B60104B3B6007E087
:100050007A68131D7B603B68191D396012681A604D
:100060003B680B4A9342F3D30A4B3B6004E03B6886
:100070001A1D3A6000221A603B68074A9342F6D381
:1000800000F0DAF800BFFDE7CC0200080000002015
:1000900000000020000000200000002080B400AF1D
:1000A00000BFFDE780B483B000AF786000E000BF20
:1000B0007B685A1E7A60002BF9D100BF00BF0C3755
:1000C000BD4680BC704780B400AF074B1B68064A32
:1000D00043F004031360054B4FF022321A6000BF57
:1000E000BD4680BC704700BF1810024000080140A8
:1000F00080B483B000AF0346FB71064B1B6823F04E
:10010000FF02FB79034913430B6000BF0C37BD4668
:1001100080BC70470C08014080B400AF064B1B68E0
:10012000054A43F008031360044B4FF022321A6073
:1001300000BFBD4680BC704718100240040C01404F
:1001400080B485B000AF0346FB71FA790D4BA3FB79
:100150000213D9080B469B000B445B00D31ADBB299
:100160001A46094B9B5C1B02FB60084B1B6823F47F
:100170007F420649FB6813430B6000BF1437BD463E
:1001800080BC7047CDCCCCCCC00200080C0C014028
:1001900080B400AF0D4B1B680C4A43F03003136072
:1001A0000B4B1B68C3F31303094A43F0884343F422
:1001B00080031360074B1B6823F00F03054A43F0CD
:1001C0000403136000BFBD4680BC70471810024096
:1001D000041001400014014080B483B000AF144B00
:1001E0001B687B60134B1B683B607B6803F4005308
:1001F000002B01D0012315E07B6803F48043002B22
:1002000001D002230EE07B6803F40043002B01D0F1
:10021000032307E03B6803F00103002B01D0042314
:1002200000E0002318460C37BD4680BC704700BF75
:10023000081001400814014080B582B000AF0023CF
:10024000FB71FFF740FFFFF767FFFFF7A1FFFFF725
:10025000C3FF0346BB71BB79012B03D1FB7901338B
:10026000FB7112E0BB79022B03D1FB79013BFB71DF
:100270000BE0BB79032B02D10023FB7105E0BB79B6
:10028000042B02D1FB79DB43FB71FB791846FFF7A6
:100290002FFFFA79084BA3FB0213D9080B469B00EA
:1002A0000B445B00D31ADBB21846FFF749FF034843
:1002B000FFF7F8FECBE700BFCDCCCCCC400D030060
:0C02C0003F065B4F666D7D077F6F0000FE
:0400000508000040AF
:00000001FF
